:100000000C949F000C94BC000C94BC000C94BC009D
:100010000C94BC000C94BC000C94BC000C94BC0070
:100020000C94BC000C94BC000C946E030C94BC00AB
:100030000C94BC000C94BC000C94BC000C94BC0050
:100040000C94BC000C94BC000C94BC000C94BC0040
:100050000C94BC00F2000B0124013D015501550137
:1000600055015501550155015501550155015501E0
:1000700055015501550155015501550155015501D0
:1000800055015501550155015501550155015501C0
:1000900055015501F2000B0124013D0162017B0174
:1000A0009401AD01C501C501C501C501C501C50169
:1000B000C501C501C501C501C501C501C501C50110
:1000C000C501C501C501C501C501C501C501C50100
:1000D000C501C501C501C501C501C50162017B019D
:1000E0009401AD01D501EA01FF01140228022802A2
:1000F00028022802280228022802280228022802B0
:10010000280228022802280228022802280228029F
:10011000280228022802280228022802280228028F
:1001200028022802D501EA01FF01140275029B0290
:10013000C102E7020D033303680268025F03112462
:100140001FBECFE5D8E0DEBFCDBF10E0A0E6B0E037
:10015000EEE3FAE002C005900D92A236B107D9F79E
:1001600020E0A2E6B0E001C01D92A636B207E1F79A
:100170000E944A020C941D050C94000041E00E946C
:10018000E600089541E00E945601089540E00E9473
:10019000560108950E94C601089587B1806487B909
:1001A00086B1806886B986B1846086B986B182607E
:1001B00086B9089586B1806486B93699FECF24B198
:1001C00085B190E0982F8827822B089590E0FC015C
:1001D000E154F109E432F10508F067C0E65DFF4F34
:1001E0000C94170541110CC02AB381E090E002C0C5
:1001F000880F991F6A95E2F7809582238ABB08953C
:100200002AB381E090E002C0880F991F6A95E2F757
:10021000822B8ABB089541110CC027B381E090E086
:1002200002C0880F991F6A95E2F78095822387BBE9
:10023000089527B381E090E002C0880F991F6A9566
:10024000E2F7822B87BB089541110CC024B381E0F3
:1002500090E002C0880F991F6A95E2F7809582238B
:1002600084BB089524B381E090E002C0880F991FF9
:100270006A95E2F7822B84BB089541110CC021B32B
:1002800081E090E002C0880F991F6A95E2F780959F
:10029000822381BB089521B381E090E002C0880FE2
:1002A000991F6A95E2F7822B81BB089590E0FC01CB
:1002B000E154F109E432F10508F067C0E25BFF4F59
:1002C0000C94170541110CC02BB381E090E002C0E3
:1002D000880F991F6A95E2F7809582238BBB08955A
:1002E0002BB381E090E002C0880F991F6A95E2F776
:1002F000822B8BBB089541110CC028B381E090E0A4
:1003000002C0880F991F6A95E2F78095822388BB07
:10031000089528B381E090E002C0880F991F6A9584
:10032000E2F7822B88BB089541110CC025B381E010
:1003300090E002C0880F991F6A95E2F780958223AA
:1003400085BB089525B381E090E002C0880F991F16
:100350006A95E2F7822B85BB089541110CC022B348
:1003600081E090E002C0880F991F6A95E2F78095BE
:10037000822382BB089522B381E090E002C0880FFF
:10038000991F6A95E2F7822B82BB08950F931F9302
:10039000082F10E0F801E154F109E432F10508F00A
:1003A00057C0EE58FF4F0C94170549B381E090E019
:1003B0009C01062E02C0220F331F0A94E2F7842FFD
:1003C00090E08223932302C0959587956A95E2F782
:1003D000982F3EC046B381E090E09C01062E02C0FB
:1003E000220F331F0A94E2F7842F90E08223932395
:1003F00002C0959587956A95E2F7982F29C043B377
:1004000081E090E09C01062E02C0220F331F0A9467
:10041000E2F7842F90E08223932302C0959587957D
:100420006A95E2F7982F14C040B381E090E09C01F8
:10043000062E02C0220F331F0A94E2F7842F90E0A9
:100440008223932302C0959587956A95E2F7982FAA
:10045000892F1F910F9108958DB180648DB941E06E
:1004600066E082E40E94E60008958FB9779BFECF94
:100470008FB1089583B7886083BF80E58CBF83B751
:10048000816083BF83B7846083BF789489B78260BB
:1004900089BF08950E943A020E94CD0062E084E480
:1004A0000E94BE0063E084E40E94BE0064E084E435
:1004B0000E94BE0065E084E40E94BE0066E084E421
:1004C0000E94BE0067E084E40E94BE000E942C02ED
:1004D00080E10E94350290E0FC017197E930F1055E
:1004E000B8F7EA56FF4F0C94170564E084E40E94C5
:1004F000CA00813011F487E101C088E10E94350211
:1005000080E10E9435022FE73AE196E02150304029
:100510009040E1F700C00000873119F0883131F0D8
:10052000D7CF64E084E40E94C200D2CF64E084E4C8
:100530000E94C600CDCF65E084E40E94CA008130ED
:1005400011F487E101C088E10E94350280E10E9438
:1005500035022FE73AE196E0215030409040E1F734
:1005600000C00000873119F0883131F0B1CF65E06B
:1005700084E40E94C200ACCF65E084E40E94C6001F
:10058000A7CF66E084E40E94CA00813011F487E1BD
:1005900001C088E10E94350280E10E9435022FE708
:1005A0003AE196E0215030409040E1F700C0000071
:1005B000873119F0883131F08BCF66E084E40E94F6
:1005C000C20086CF66E084E40E94C60081CF67E067
:1005D00084E40E94CA00813011F487E101C088E1FF
:1005E0000E94350280E10E9435022FE73AE196E051
:1005F000215030409040E1F700C00000873119F0F1
:10060000883131F065CF67E084E40E94C20060CF9A
:1006100067E084E40E94C6005BCF63E084E40E944C
:10062000CA00813011F487E101C088E10E943502DF
:1006300080E10E9435022FE73AE196E021503040F8
:100640009040E1F700C00000873119F0883131F0A7
:100650003FCF63E084E40E94C2003ACF63E084E4C9
:100660000E94C60035CF62E084E40E94CA00813057
:1006700011F487E101C088E10E94350280E10E9407
:1006800035022FE73AE196E0215030409040E1F703
:1006900000C00000873119F0883149F019CF87E197
:1006A0008093650062E084E40E94C20011CF88E17B
:1006B0008093650062E084E40E94C60009CF80E177
:1006C0000E943502809360002FE73AE186E02150D6
:1006D00030408040E1F700C00000FACE1F920F9238
:1006E0000FB60F9211242F933F934F935F936F9305
:1006F0007F938F939F93AF93BF93EF93FF938091DB
:1007000064008F5F80936400809164008A3008F4F5
:100710004CC0109264000E94DA00BC0180E090E0BE
:100720000E941C0420E030E040E85EE30E94820466
:100730000E94E603609363008091600088230CF4BC
:100740008F5F859590916300891764F480916500AF
:10075000873141F462E084E40E94C20087E1809323
:10076000620023C08091600088230CF48F5F859520
:1007700090916300891312C080916500873171F4F4
:1007800080916200873129F462E084E40E94C20013
:100790000CC062E084E40E94C60007C062E084E40A
:1007A0000E94C60088E180936200FF91EF91BF91A3
:1007B000AF919F918F917F916F915F914F913F91F9
:1007C0002F910F900FBE0F901F9018950E94ED0370
:1007D0006894B1110C947C0408950E94610488F01F
:1007E0009F5798F0B92F9927B751B0F0E1F0660FF5
:1007F000771F881F991F1AF0BA95C9F714C0B13036
:1008000091F00E947B04B1E008950C947B04672F63
:10081000782F8827B85F39F0B93FCCF38695779564
:100820006795B395D9F73EF490958095709561954D
:100830007F4F8F4F9F4F0895E89409C097FB3EF478
:1008400090958095709561957F4F8F4F9F4F99231D
:10085000A9F0F92F96E9BB279395F695879577959B
:100860006795B795F111F8CFFAF4BB0F11F460FF5B
:100870001BC06F5F7F4F8F4F9F4F16C0882311F0B3
:1008800096E911C0772321F09EE8872F762F05C0C7
:10089000662371F096E8862F70E060E02AF09A9562
:1008A000660F771F881FDAF7880F9695879597F957
:1008B000089557FD9058440F551F59F05F3F71F050
:1008C0004795880F97FB991F61F09F3F79F08795B7
:1008D0000895121613061406551FF2CF4695F1DF40
:1008E00008C0161617061806991FF1CF86957105D0
:1008F000610508940895E894BB2766277727CB0104
:1009000097F908950E9495040C9406050E94F80436
:1009100038F00E94FF0420F0952311F00C94EF04AE
:100920000C94F50411240C947C040E94590470F377
:10093000959FC1F3950F50E0551F629FF001729F84
:10094000BB27F00DB11D639FAA27F00DB11DAA1F93
:10095000649F6627B00DA11D661F829F2227B00DE0
:10096000A11D621F739FB00DA11D621F839FA00D6B
:10097000611D221F749F3327A00D611D231F849FBB
:10098000600D211D822F762F6A2F11249F57504012
:100990009AF0F1F088234AF0EE0FFF1FBB1F661F8D
:1009A000771F881F91505040A9F79E3F510580F056
:1009B0000C94EF040C947C045F3FE4F3983ED4F372
:1009C000869577956795B795F795E7959F5FC1F7FA
:1009D000FE2B880F911D9695879597F9089597F9A5
:1009E0009F6780E870E060E008959FEF80EC0895D5
:1009F00000240A94161617061806090608950024FE
:100A00000A9412161306140605060895092E039477
:100A1000000C11F4882352F0BB0F40F4BF2B11F4EB
:100A200060FF04C06F5F7F4F8F4F9F4F0895EE0FA1
:0E0A3000FF1F0590F491E02D0994F894FFCF7C
:020A3E001400A2
:00000001FF
