:100000000C949F000C94BC000C94BC000C94BC009D
:100010000C94BC000C94BC000C94BC000C94BC0070
:100020000C94BC000C94BC000C9432030C94BC00E7
:100030000C94BC000C94BC000C94BC000C94BC0050
:100040000C94BC000C94BC000C94BC000C94BC0040
:100050000C94BC00F5000E01270140015801580125
:1000600058015801580158015801580158015801C8
:1000700058015801580158015801580158015801B8
:1000800058015801580158015801580158015801A8
:1000900058015801F5000E012701400165017E015C
:1000A0009701B001C801C801C801C801C801C80151
:1000B000C801C801C801C801C801C801C801C801F8
:1000C000C801C801C801C801C801C801C801C801E8
:1000D000C801C801C801C801C801C80165017E0185
:1000E0009701B001D801ED01020217022B022B0289
:1000F0002B022B022B022B022B022B022B022B0298
:100100002B022B022B022B022B022B022B022B0287
:100110002B022B022B022B022B022B022B022B0277
:100120002B022B02D801ED01020217027802950280
:10013000B202CF02EC0209036B026B022C03112402
:100140001FBECFE5D8E0DEBFCDBF10E0A0E6B0E037
:10015000E6EBF9E002C005900D92A236B107D9F79F
:1001600020E0A2E6B0E001C01D92A636B207E1F79A
:100170000E944D020C94D9040C94000041E00E94AE
:10018000E900089541E00E945901089540E00E946D
:10019000590108950E94C901089587B1806487B903
:1001A00087B1806887B986B1806886B986B1846076
:1001B00086B986B1826086B9089586B1806486B9B1
:1001C0003699FECF24B185B190E0982F8827822BF5
:1001D000089590E0FC01E154F109E432F10508F0E2
:1001E00067C0E65DFF4F0C94D30441110CC02AB3E5
:1001F00081E090E002C0880F991F6A95E2F7809530
:1002000082238ABB08952AB381E090E002C0880F60
:10021000991F6A95E2F7822B8ABB089541110CC0A1
:1002200027B381E090E002C0880F991F6A95E2F73A
:100230008095822387BB089527B381E090E002C0B8
:10024000880F991F6A95E2F7822B87BB08954111A9
:100250000CC024B381E090E002C0880F991F6A951A
:10026000E2F78095822384BB089524B381E090E077
:1002700002C0880F991F6A95E2F7822B84BB08950C
:1002800041110CC021B381E090E002C0880F991F9A
:100290006A95E2F78095822381BB089521B381E0BE
:1002A00090E002C0880F991F6A95E2F7822B81BB0C
:1002B000089590E0FC01E154F109E432F10508F001
:1002C00067C0E25BFF4F0C94D30441110CC02BB309
:1002D00081E090E002C0880F991F6A95E2F780954F
:1002E00082238BBB08952BB381E090E002C0880F7E
:1002F000991F6A95E2F7822B8BBB089541110CC0C0
:1003000028B381E090E002C0880F991F6A95E2F758
:100310008095822388BB089528B381E090E002C0D5
:10032000880F991F6A95E2F7822B88BB08954111C7
:100330000CC025B381E090E002C0880F991F6A9538
:10034000E2F78095822385BB089525B381E090E094
:1003500002C0880F991F6A95E2F7822B85BB08952A
:1003600041110CC022B381E090E002C0880F991FB8
:100370006A95E2F78095822382BB089522B381E0DB
:1003800090E002C0880F991F6A95E2F7822B82BB2A
:1003900008950F931F93082F10E0F801E154F1091D
:1003A000E432F10508F057C0EE58FF4F0C94D30427
:1003B00049B381E090E09C01062E02C0220F331F5A
:1003C0000A94E2F7842F90E08223932302C095954C
:1003D00087956A95E2F7982F3EC046B381E090E09A
:1003E0009C01062E02C0220F331F0A94E2F7842FCD
:1003F00090E08223932302C0959587956A95E2F752
:10040000982F29C043B381E090E09C01062E02C0E2
:10041000220F331F0A94E2F7842F90E08223932364
:1004200002C0959587956A95E2F7982F14C040B35E
:1004300081E090E09C01062E02C0220F331F0A9437
:10044000E2F7842F90E08223932302C0959587954D
:100450006A95E2F7982F892F1F910F9108958DB11A
:1004600080648DB941E066E082E40E94E90008956D
:100470008FB9779BFECF8FB1089583B7886083BF14
:1004800080E58CBF83B7816083BF83B7846083BFFF
:10049000789489B7826089BF08950E943D020E94C6
:1004A000CD0062E084E40E94BE0063E084E40E9428
:1004B000BE0064E084E40E94BE0065E084E40E9423
:1004C000BE0066E084E40E94BE0067E084E40E940F
:1004D000BE000E942F0280E10E94380290E0FC01E1
:1004E0007197E930F105B8F7EA56FF4F0C94D30441
:1004F00064E084E40E94CA00813011F487E101C005
:1005000088E10E94380280E10E943802873119F0A8
:10051000883131F0E0CF64E084E40E94C200DBCF98
:1005200064E084E40E94C600D6CF65E084E40E94C3
:10053000CA00813011F487E101C088E10E943802CD
:1005400080E10E943802873119F0883131F0C3CF41
:1005500065E084E40E94C200BECF65E084E40E94AE
:10056000C600B9CF66E084E40E94CA00813011F46D
:1005700087E101C088E10E94380280E10E943802D0
:10058000873119F0883131F0A6CF66E084E40E940B
:10059000C200A1CF66E084E40E94C6009CCF67E061
:1005A00084E40E94CA00813011F487E101C088E12F
:1005B0000E94380280E10E943802873119F08831A8
:1005C00031F089CF67E084E40E94C20084CF67E005
:1005D00084E40E94C6007FCF63E084E40E94CA00E6
:1005E000813011F487E101C088E10E94380280E186
:1005F0000E943802873119F0883131F06CCF63E006
:1006000084E40E94C20067CF63E084E40E94C600D5
:1006100062CF62E084E40E94CA00813011F487E175
:1006200001C088E10E94380280E10E9438028731CF
:1006300019F0883149F04FCF87E18093650062E07F
:1006400084E40E94C20047CF88E18093650062E0A5
:1006500084E40E94C6003FCF80E10E94380280936C
:10066000600039CF1F920F920FB60F9211242F9373
:100670003F934F935F936F937F938F939F93AF932A
:10068000BF93EF93FF93809164008F5F809364002A
:10069000809164008A3008F444C0109264000E9483
:1006A000DD00BC0180E090E00E94D80320E030E053
:1006B00040E85EE30E943E040E94A2036093630050
:1006C0009091630080916000891764F480916500C7
:1006D000873141F462E084E40E94C20087E18093A4
:1006E00062001FC09091630080916000981312C057
:1006F00080916500873171F480916200873129F41F
:1007000062E084E40E94C2000CC062E084E40E94C3
:10071000C60007C062E084E40E94C60088E18093BE
:100720006200FF91EF91BF91AF919F918F917F9167
:100730006F915F914F913F912F910F900FBE0F904E
:100740001F9018950E94A9036894B1110C94380465
:1007500008950E941D0488F09F5798F0B92F99279B
:10076000B751B0F0E1F0660F771F881F991F1AF09C
:10077000BA95C9F714C0B13091F00E943704B1E0C6
:1007800008950C943704672F782F8827B85F39F0C5
:10079000B93FCCF3869577956795B395D9F73EF435
:1007A00090958095709561957F4F8F4F9F4F0895DD
:1007B000E89409C097FB3EF49095809570956195FB
:1007C0007F4F8F4F9F4F9923A9F0F92F96E9BB27B1
:1007D0009395F695879577956795B795F111F8CF2D
:1007E000FAF4BB0F11F460FF1BC06F5F7F4F8F4F98
:1007F0009F4F16C0882311F096E911C0772321F08E
:100800009EE8872F762F05C0662371F096E8862F25
:1008100070E060E02AF09A95660F771F881FDAF77C
:10082000880F9695879597F9089557FD9058440F2E
:10083000551F59F05F3F71F04795880F97FB991F3F
:1008400061F09F3F79F087950895121613061406FC
:10085000551FF2CF4695F1DF08C016161706180689
:10086000991FF1CF86957105610508940895E89464
:10087000BB2766277727CB0197F908950E9451047B
:100880000C94C2040E94B40438F00E94BB0420F00F
:10089000952311F00C94AB040C94B10411240C9426
:1008A00038040E94150470F3959FC1F3950F50E032
:1008B000551F629FF001729FBB27F00DB11D639F12
:1008C000AA27F00DB11DAA1F649F6627B00DA11DB8
:1008D000661F829F2227B00DA11D621F739FB00D5E
:1008E000A11D621F839FA00D611D221F749F3327CE
:1008F000A00D611D231F849F600D211D822F762F67
:100900006A2F11249F5750409AF0F1F088234AF043
:10091000EE0FFF1FBB1F661F771F881F91505040AF
:10092000A9F79E3F510580F00C94AB040C94380459
:100930005F3FE4F3983ED4F3869577956795B79536
:10094000F795E7959F5FC1F7FE2B880F911D969550
:10095000879597F9089597F99F6780E870E060E0C0
:1009600008959FEF80EC089500240A941616170648
:1009700018060906089500240A9412161306140690
:1009800005060895092E0394000C11F4882352F0F3
:10099000BB0F40F4BF2B11F460FF04C06F5F7F4FAB
:1009A0008F4F9F4F0895EE0FFF1F0590F491E02D9C
:0609B0000994F894FFCF4A
:0209B60014002B
:00000001FF
