S00C0000436F64652E737265639D
S11300000C9402010C9417010C9417010C94170121
S11300100C9417010C9417010C9417010C941701FC
S11300200C9417010C9417010C9417010C941701EC
S11300300C9417010C9417010C9417010C941701DC
S11300400C9417010C9417010C9417010C941701CC
S11300500C94170153026C0285029E02B602B6028A
S1130060B602B602B602B602B602B602B602B602CC
S1130070B602B602B602B602B602B602B602B602BC
S1130080B602B602B602B602B602B602B602B602AC
S1130090B602B60253026C0285029E02C302DC025F
S11300A0F5020E032603260326032603260326034E
S11300B026032603260326032603260326032603F4
S11300C026032603260326032603260326032603E4
S11300D0260326032603260326032603C302DC0283
S11300E0F5020E0336034B0360037503890389038A
S11300F0890389038903890389038903890389039C
S1130100890389038903890389038903890389038B
S1130110890389038903890389038903890389037B
S11301208903890336034B036003750398039A0319
S11301309C039E039F039F039F039F039F039F03AF
S11301409F039F039F039F039F039F039F039F039B
S11301509F039F039F039F039F039F039F039F038B
S11301609F039F039F039F039F039F0398039A0387
S11301709C039E03AC03C503DE03F7030F040F04C3
S11301800F040F040F040F040F040F040F040F04D3
S11301900F040F040F040F040F040F040F040F04C3
S11301A00F040F040F040F040F040F040F040F04B3
S11301B00F040F04AC03C503DE03F7031D0424047A
S11301C02B0432043804380438043804380438045E
S11301D0380438043804380438043804380438043B
S11301E0380438043804380438043804380438042B
S11301F03804380438043804380438041D0424044A
S11302002B04320411241FBECFE5D8E0DEBFCDBFDE
S113021012E0A0E6B0E0E6E5F3E102C005900D923D
S1130220A234B107D9F70E94C4040C94A9090C9410
S11302300000CF936FE084E40E948D03C4E006C005
S113024041E06C2F84E40E94A003CF5FC830C0F368
S1130250CF910895CF93DF93D0E032C041E060E0C6
S113026084E40E94B70241E061E084E40E94B702A2
S113027041E062E084E40E94B70241E063E084E488
S11302800E94B70240E06D2F84E40E94B702C0E0F0
S113029014C064E06C0F84E40E94270381110CC035
S11302A0ED2FF0E0EE0FFF1FEE0FFF1FE05AFF4FA0
S11302B0EC0FF11D808107C0CF5FC43050F3DF5FC6
S11302C0D43060F28FEFDF91CF91089541E062E086
S11302D083E40E94B7028FEC97E00197F1F700C026
S11302E0000040E062E083E40E94B7028FEC97E0F4
S11302F00197F1F700C000000895CF93C82F682F2D
S113030062956F7083E40E94100440E060E083E42F
S11303100E94B7020E9466016C2F83E40E941004BD
S113032040E060E083E40E94B7020E946601CF913E
S113033008952FEF80E792E0215080409040E1F74C
S113034000C0000060EF83E40E948D0341E060E0A0
S113035083E40E94470241E061E083E40E94470293
S113036041E062E083E40E94470240E061E083E40C
S11303700E94B70282E00E947D018FE097E201971C
S1130380F1F700C0000088E20E947D018FEC97E045
S11303900197F1F700C000008EE00E947D018FEC10
S11303A097E00197F1F700C0000081E00E947D0111
S11303B08FE097E20197F1F700C0000086E00E9409
S11303C07D018FEC97E00197F1F700C000000895DC
S11303D0CF93C82F682F62956F7083E40E94100436
S11303E041E060E083E40E94B7020E9466016C2F42
S11303F083E40E94100441E060E083E40E94B702B9
S11304000E946601CF910895CF93DF93EC0103C05E
S11304100E94E801219688818111FACFDF91CF9162
S1130420089581E00E947D018FE097E20197F1F742
S113043000C0000008959FEF980F923020F46131BE
S113044014F4161624F080E80E947D010DC081305A
S113045029F48FE7860F0E947D0106C0823021F4C3
S11304608FEB860F0E947D018FEC97E00197F1F7E7
S113047000C00000089541E00E944702089541E051
S11304800E94B702089540E00E94B702089590E0E8
S1130490FC01E154F109E432F10508F067C0E65DBE
S11304A0FF4F0C94A30941110CC02AB381E090E0E2
S11304B002C0880F991F6A95E2F7809582238ABB50
S11304C008952AB381E090E002C0880F991F6A95CD
S11304D0E2F7822B8ABB089541110CC027B381E057
S11304E090E002C0880F991F6A95E2F780958223F5
S11304F087BB089527B381E090E002C0880F991F5D
S11305006A95E2F7822B87BB089541110CC024B38E
S113051081E090E002C0880F991F6A95E2F7809508
S1130520822384BB089524B381E090E002C0880F45
S1130530991F6A95E2F7822B84BB089541110CC080
S113054021B381E090E002C0880F991F6A95E2F719
S11305508095822381BB089521B381E090E002C09D
S1130560880F991F6A95E2F7822B81BB089590E06A
S1130570FC01E154F109E432F10508F067C0E25BE3
S1130580FF4F0C94A30941110CC02BB381E090E000
S113059002C0880F991F6A95E2F7809582238BBB6E
S11305A008952BB381E090E002C0880F991F6A95EB
S11305B0E2F7822B8BBB089541110CC028B381E074
S11305C090E002C0880F991F6A95E2F78095822314
S11305D088BB089528B381E090E002C0880F991F7A
S11305E06A95E2F7822B88BB089541110CC025B3AC
S11305F081E090E002C0880F991F6A95E2F7809528
S1130600822385BB089525B381E090E002C0880F62
S1130610991F6A95E2F7822B85BB089541110CC09E
S113062022B381E090E002C0880F991F6A95E2F737
S11306308095822382BB089522B381E090E002C0BA
S1130640880F991F6A95E2F7822B82BB08950F9356
S11306501F93082F10E0F801E154F109E432F10589
S113066008F057C0EE58FF4F0C94A30949B381E03A
S113067090E09C01062E02C0220F331F0A94E2F779
S1130680842F90E08223932302C0959587956A95E1
S1130690E2F7982F3EC046B381E090E09C01062E1D
S11306A002C0220F331F0A94E2F7842F90E08223C2
S11306B0932302C0959587956A95E2F7982F29C0F0
S11306C043B381E090E09C01062E02C0220F331F49
S11306D00A94E2F7842F90E08223932302C0959535
S11306E087956A95E2F7982F14C040B381E090E0B3
S11306F09C01062E02C0220F331F0A94E2F7842FB6
S113070090E08223932302C0959587956A95E2F73A
S1130710982F892F1F910F91089590E0FC01E154C7
S1130720F109E432F10558F4EA56FF4F0C94A30999
S11307306ABB089567BB089564BB089561BB0895BF
S113074090E0FC01E154F109E432F10508F067C0DE
S1130750E654FF4F0C94A30941110CC02BB381E064
S113076090E002C0880F991F6A95E2F78095822372
S11307708BBB08952BB381E090E002C0880F991FD2
S11307806A95E2F7822B8BBB089541110CC028B304
S113079081E090E002C0880F991F6A95E2F7809586
S11307A0822388BB089528B381E090E002C0880FBB
S11307B0991F6A95E2F7822B88BB089541110CC0FA
S11307C025B381E090E002C0880F991F6A95E2F793
S11307D08095822385BB089525B381E090E002C013
S11307E0880F991F6A95E2F7822B85BB0895411102
S11307F00CC022B381E090E002C0880F991F6A9573
S1130800E2F78095822382BB089522B381E090E0D1
S113081002C0880F991F6A95E2F7822B82BB089564
S11308206295607F90E0FC01E154F109E432F10546
S1130830F8F4E252FF4F0C94A3098BB38F708BBB77
S11308408BB3682B6BBB089588B38F7088BB88B358
S1130850682B68BB089585B38F7085BB85B3682BFF
S113086065BB089582B38F7082BB82B3682B62BB71
S113087008959FBB8EBB6DBB8CB384608CBB8CB363
S113088082608CBBE199FECF0895CF92DF92EF9204
S1130890FF920F931F93CF93DF936C017B018A0127
S11308A0C0E0D0E00AC0F701EC0FFD1F6081CE016B
S11308B08C0D9D1D0E9439042196C017D10798F311
S11308C0DF91CF911F910F91FF90EF90DF90CF9028
S11308D008959FBB8EBB8CB381608CBB8DB3089590
S11308E0AF92BF92CF92DF92EF92FF920F931F933A
S11308F0CF93DF935C016B017A01C0E0D0E00BC0C1
S113090086010C0F1D1FCE018A0D9B1D0E946904D8
S1130910F80180832196CE15DF0590F3DF91CF9106
S11309201F910F91FF90EF90DF90CF90BF90AF9009
S1130930089541E064E082E40E94470241E065E0FA
S113094082E40E94470241E067E082E40E94470299
S11309508DB180618DB98DB181608DB98DB18064A7
S11309608DB941E064E082E40E94B7020895CF9318
S1130970C82F40E064E082E40E94B702CFB9779BBD
S1130980FECF8FB1CF9108950E94990180E790E046
S11309900E94040261E082E00E941B0281E890E070
S11309A00E9404022FEF8EE994E22150804090408F
S11309B0E1F700C000000E9411020E94190160E0EA
S11309C081E40E943B0261E081E40E943B0262E018
S11309D081E40E943B020E94990482E290E00E941A
S11309E069048F3F31F087E290E00E9469048F3FF1
S11309F011F40E9418078CE290E00E94690481308F
S1130A0019F40E94A805F7CF0E94BA06F4CF8B32DE
S1130A1061F08D3261F08F3261F08A3261F083349B
S1130A2061F08D3359F48FEF08958FEF08958FEFB0
S1130A3008958FEF08958FEF08958FEF0895FF9233
S1130A400F931F93CF93DF9300D000D0CDB7DEB7C1
S1130A50F82E20E3821305C08CE890E00E94040283
S1130A6004C08BE990E00E94040261E082E00E94ED
S1130A701B028AEA90E00E94040210E0012F0E9407
S1130A802A01182F0E9407058F3FC9F3812F0E9466
S1130A90E801E1E0F0E0EC0FFD1FE00FF11D108331
S1130AA011E0100F8FE79AE126E08150904020403A
S1130AB0E1F700C000006BE0600F82E00E941B02BF
S1130AC08AE20E94E8011430C8F280E3F8120FC0F1
S1130AD044E050E0BE016F5F7F4F83E290E00E94EC
S1130AE0450460E082E290E00E9439040EC044E0D4
S1130AF050E0BE016F5F7F4F88E290E00E944504A2
S1130B0060E087E290E00E9439040E94110285EBC4
S1130B1090E00E94040261E082E00E941B0284ECE7
S1130B2090E00E9404029FEF2EE984E2915020405D
S1130B308040E1F700C000000E9411020F900F9066
S1130B400F900F90DF91CF911F910F91FF90089517
S1130B50CF93DF9360E081E40E943F0281ED90E057
S1130B600E94040261E082E00E941B0282EE90E097
S1130B700E940402DDE123C02FEF89E698E12150B1
S1130B8080409040E1F700C0000066E082E00E94EF
S1130B901B02CDECDC9FC12D1124C695C695C695CC
S1130BA080E38C0F0E94E801CC0F8C2F880F880FF4
S1130BB0C80F8D2F8C1B805D0E94E801D150D1118C
S1130BC0DBCF0E94110260E08CE290E00E943904C5
S1130BD060E081E40E944302DF91CF9108950F9376
S1130BE01F93CF93DF93CDB7DEB728970FB6F89452
S1130BF0DEBF0FBECDBF803309F057C082EF90E057
S1130C000E94040261E082E00E941B028AEA90E0F2
S1130C100E94040200E023C00E942A01182F0E94AF
S1130C2007058F3FC9F3812F0E94E801E1E0F0E05E
S1130C30EC0FFD1FE00FF11D10832FE78AE196E012
S1130C40215080409040E1F700C000006BE0600F4D
S1130C5082E00E941B028AE20E94E8010F5F0430D6
S1130C60D8F20E94110244E050E0BE016B5F7F4F56
S1130C7083E290E00E94700420E013C0822F90E091
S1130C80E1E0F0E0EC0FFD1FE80FF91F3081E5E033
S1130C90F0E0EC0FFD1FE80FF91F808138135CC0F2
S1130CA02F5F243058F381E05AC08EEF90E00E9409
S1130CB0040261E082E00E941B028AEA90E00E9442
S1130CC0040200E023C00E942A01182F0E94070595
S1130CD08F3FC9F3812F0E94E801E1E0F0E0EC0FBF
S1130CE0FD1FE00FF11D10832FE78AE196E02150EC
S1130CF080409040E1F700C000006BE0600F82E0AC
S1130D000E941B028AE20E94E8010F5F0430D8F2BD
S1130D100E94110244E050E0BE016B5F7F4F88E205
S1130D2090E00E94700420E013C0822F90E0E1E084
S1130D30F0E0EC0FFD1FE80FF91F3081E5E0F0E073
S1130D40EC0FFD1FE80FF91F8081381307C02F5FD8
S1130D50243058F381E003C080E001C080E028968D
S1130D600FB6F894DEBF0FBECDBFDF91CF911F91B8
S1130D700F9108951F93CF93DF93D0E08AE091E021
S1130D800E94040261E082E00E941B0287E191E07C
S1130D900E9404020E942A01C82F80ED8C0F823029
S1130DA0C8F70E941102DF5F2FE78AE196E0215025
S1130DB080409040E1F700C000008C2F0E94EF05B6
S1130DC0182F81111DC00E94110287E291E00E9438
S1130DD0040261E082E00E941B0287E391E00E942A
S1130DE0040283E38D1B0E94E8012FEF8EE994E255
S1130DF0215080409040E1F700C000000E941102A1
S1130E00D33019F0112309F4B9CFD33031F461E0B0
S1130E108CE290E00E94390407C0C03319F40E94A8
S1130E20D10802C00E940908DF91CF911F91089553
S1130E3084E491E00E9404022FEF8EE994E22150B1
S1130E4080409040E1F700C000000E94110280E35E
S1130E500E941F0581E30E941F0560E08CE290E080
S1130E600E9439040895823019F118F4813039F060
S1130E706AC08330B1F1843009F44CC064C081E1AC
S1130E800E94B7042FE73AE186E0215030408040C9
S1130E90E1F700C0000080E10E94B7049FE72AE167
S1130EA036E0915020403040E1F700C00000089542
S1130EB082E10E94B7048FE79AE126E081509040D6
S1130EC02040E1F700C0000080E10E94B7043FE742
S1130ED09AE126E0315090402040E1F700C0000044
S1130EE0089583E10E94B7043FE78AE196E0315018
S1130EF080409040E1F700C0000080E10E94B70408
S1130F002FE73AE196E0215030409040E1F700C0ED
S1130F100000089584E10E94B7042FE73AE186E0D7
S1130F20215030408040E1F700C0000080E10E9481
S1130F30B7049FE72AE136E0915020403040E1F7C2
S1130F4000C00000089580E1089585E10E94B7047F
S1130F502FE78AE196E0215080409040E1F700C0FD
S1130F60000080E10E94B704089586E10E94B7045E
S1130F702FE78AE196E0215080409040E1F700C0DD
S1130F80000080E10E94B7040895873129F484E5C4
S1130F9091E00E94040204C087E591E00E940402EB
S1130FA061E082E00E941B028BE591E00E94040252
S1130FB00E942A019FEC980F9330D0F7813369F493
S1130FC087E10E94B7042FE78AE196E02150804030
S1130FD09040E1F700C000000895823369F488E18D
S1130FE00E94B7042FE78AE196E0215080409040A8
S1130FF0E1F700C00000089580E10E94B7042FE7E4
S11310008AE196E0215080409040E1F700C0000062
S11310100895CF93DF9362E081E40E943F028CE65F
S113102091E00E9404022FEF8EE994E22150804067
S11310309040E1F700C00000D0E10E9411028BE76C
S113104091E00E94040261E082E00E941B028CE8AD
S113105091E00E9404020E942A01C82F833421F0E7
S11310608FEC8C0F8430B8F70E941102C33491F1D5
S1131070C23391F018F4C13331F028C0C333A9F05E
S1131080C433E1F023C08DE991E00E94040281E0C1
S11310900E943307D82F1AC08AEA91E00E94040202
S11310A082E00E943307D82F11C087EB91E00E94A1
S11310B0040283E00E943307D82F08C084EC91E037
S11310C00E94040284E00E943307D82F8D2F0E94CF
S11310D0C507B3CF62E081E40E944302DF91CF9160
S11310E00895CF93DF9381ED91E00E9404028FED88
S11310F00E94E80183E40E94E8012FE78AE196E078
S1131100215080409040E1F700C000000E942A0175
S1131110C82F0E9407058F3FC9F36AE081E00E944F
S11311201B028C2F0E94E8018C2F90E0C097880F3F
S1131130C82FCC0FCC0FD82FDC0F2FE78AE196E015
S1131140215080409040E1F700C000000E942A0135
S1131150C82F0E9407058F3FC9F36BE081E00E940E
S11311601B028C2F0E94E801CD0FC05389E10E941D
S1131170B7042FE78AE196E0215080409040E1F7E0
S113118000C000008C2F0E94B7042FE78AE196E08C
S1131190215080409040E1F700C00000DF91CF91E2
S11311A008951F93CF93DF9361E081E40E943F028F
S11311B08DED91E00E9404022FEF8EE994E221501C
S11311C080409040E1F700C000000E9411028BE7CC
S11311D091E00E94040261E082E00E941B028CEE16
S11311E091E00E9404022FE78AE196E021508040BA
S11311F09040E1F700C000000E942A01C82F833408
S113120021F08FEC8C0F8430B8F70E941102C334A4
S113121009F48BC0C23391F018F4C13331F082C0A9
S1131220C333A9F0C433E1F07DC08DE991E00E949D
S1131230040281E00E943307182F74C08AEA91E007
S11312400E94040282E00E943307182F6BC087EBD0
S113125091E00E94040283E00E943307182F62C0C9
S11312600E9411028CEF91E00E94040261E082E08E
S11312700E941B028AE092E00E9404022FE78AE1A6
S113128096E0215080409040E1F700C000000E94A9
S11312902A01D82F8FEC8D0F8430C8F70E941102D9
S11312A0D23371F0D333A9F0D133C9F584EC91E092
S11312B00E94040284E00E943307182FCD2F32C00D
S11312C089E192E00E9404020E94A507182FCD2F05
S11312D029C083E292E00E94040261E082E00E945D
S11312E01B028FE292E00E9404020E942A01D82F7E
S11312F08FEC8D0F8230C8F70E941102D13319F0A0
S1131300D23321F00EC00E9471080CC088E392E031
S11313100E9404020E94B507182FCD2F03C0CD2FC1
S113132001C0CD2FC43309F450CFC33421F0812F31
S11313300E94C5074ACF61E081E40E944302DF9125
S1131340CF911F910895EE0FFF1F0590F491E02DAA
S10913500994F894FFCF9C
S11313563738392F3435362A3132332D43303D2B45
S113136657656C636F6D6520746F20536865666F8F
S113137600536D61727420486F6D65005365742067
S1131386536865666F205061737300536574204714
S11313965545535420506173730050617373776FCE
S11313A672643A200050617373776F7264205361DC
S11313B6766564005375636365737366756C6C79DF
S11313C6004C6F67696E20697320426C6F636B65AE
S11313D6640057616974203330205365636F6E640B
S11313E67300577269746520536865666F00577297
S11313F66974652047756573740053656C65637419
S113140620557365723A00303A536865666F203129
S11314163A47756573740057726F6E67205061732F
S113142673776F726421005472696573204C656624
S1131436743A20004669727374206C6F67696E2073
S11314462E2E2E004F4E004F464600313A4F4E2068
S1131456323A4F464620333A7265740057656C63D8
S11314666F6D652047756573742100313A524F4F8D
S11314764D312020323A524F4F4D3200333A524FBB
S11314864F4D332020343A524F4F4D3400524F4F74
S11314964D3120535441543A2000524F4F4D32207F
S11314A6535441543A2000524F4F4D332053544124
S11314B6543A2000524F4F4D3420535441543A204D
S11314C6005365742074656D703A5F5F0057656CF0
S11314D6636F6D6520536865666F2100333A524F1A
S11314E64F4D332020343A4D6F726500313A524FD6
S11314F64F4D342020323A545600333A414320208B
S1131506343A52657475726E0054562053544154DD
S11315163A2000313A5365742054656D702E0032BA
S11315263A53657420414300414320535441543A8D
S105153620008F
S9030000FC
